:100000000C9458000C9480000C9480000C94800098
:100010000C9480000C9480000C9480000C94800060
:100020000C9480000C9480000C9480000C94800050
:100030000C9480000C9480000C9480000C94800040
:100040000C9451020C9480000C94C1020C949B02FD
:100050000C9480000C9480000C9480000C94800020
:100060000C94F3020C94800000000000250028008E
:100070002B00040404040404040402020202020229
:10008000030303030303010204081020408001025C
:1000900004081020010204081020000000080002DB
:1000A000010000030407000000000000000021041C
:1000B00011241FBECFEFD8E0DEBFCDBF11E0A0E01E
:1000C000B1E0E4E1FAE002C005900D92A432B1077C
:1000D000D9F722E0A4E2B1E001C01D92A834B20732
:1000E000E1F710E0C8E5D0E004C02197FE010E94CE
:1000F000FD04C735D107C9F70E945A040C940805BE
:100100000C94000090E0FC01E656FF4F2491FC01A6
:10011000EA57FF4F3491FC01EE58FF4FE491EE2374
:10012000B1F1222339F1233091F038F42130A9F0D4
:10013000223001F584B58F7D12C0273091F0283030
:10014000A1F02430B9F4809180008F7D03C08091AC
:1001500080008F77809380000DC084B58F7784BD39
:1001600009C08091B0008F7703C08091B0008F7D6F
:100170008093B000F0E0EE0FFF1FE859FF4FA5910C
:10018000B4918FB7F894EC913E2B3C938FBF0895B8
:10019000CF92DF92EF92FF920F931F93CF93DF9353
:1001A0006C017A018B01C0E0D0E0CE15DF0589F04B
:1001B000D8016D918D01D601ED91FC910190F081F6
:1001C000E02DC6010995892B11F47E0102C021960C
:1001D000ECCFC701DF91CF911F910F91FF90EF906E
:1001E000DF90CF900895FC01538D448D252F30E092
:1001F000842F90E0821B930B541710F0CF96089534
:1002000001970895FC01918D828D981761F0828D80
:10021000DF01A80FB11D5D968C91928D9F5F9F733A
:10022000928F90E008958FEF9FEF0895FC01918DDC
:10023000828D981731F0828DE80FF11D858D90E049
:1002400008958FEF9FEF0895FC01918D228D892FE6
:1002500090E0805C9F4F821B91098F7399270895CE
:100260008FE991E00E94240121E0892B09F420E02C
:10027000822F0895FC01848DDF01A80FB11DA35AC0
:10028000BF4F2C91848D90E001968F739927848FB6
:10029000A689B7892C93A089B1898C9180648C93AD
:1002A000938D848D981306C00288F389E02D808198
:1002B0008F7D80830895EF92FF920F931F93CF93CA
:1002C000DF93EC0181E0888F9B8D8C8D981305C0A6
:1002D000E889F989808185FD24C0F62E0B8D10E018
:1002E0000F5F1F4F0F731127E02E8C8DE8120CC08B
:1002F0000FB607FCFACFE889F989808185FFF5CF31
:10030000CE010E943A01F1CF8B8DFE01E80FF11D65
:10031000E35AFF4FF0820B8FEA89FB89808180626C
:1003200007C0EE89FF896083E889F989808180644C
:10033000808381E090E0DF91CF911F910F91FF903A
:10034000EF900895CF93DF93EC01888D8823C9F057
:10035000EA89FB89808185FD05C0A889B9898C91CE
:1003600086FD0FC00FB607FCF5CF808185FFF2CF69
:10037000A889B9898C9185FFEDCFCE010E943A0101
:10038000E7CFDF91CF91089580E090E0892B29F0AD
:100390000E94300181110C940000089585ED809336
:1003A000BC008091BC0084FDFCCF109291010895A7
:1003B00040914601262F30E0240F311D21323105B6
:1003C000DCF4209191012430C9F4FC0180E090E03C
:1003D000861758F4309146012191DC01AC5DBE4F87
:1003E000A30FB11D2C930196F3CF80914601680FA6
:1003F0006093460180E0089581E0089582E00895C9
:10040000089581E090E03091950120919401321798
:1004100010F480E090E09195819591090895809184
:10042000950190919401891730F48F5F8093950125
:1004300080E090E008958FEF9FEF08958091940100
:1004400090E020919501821B91090895CF93DF934D
:1004500000D0CDB7DEB7CB01642F49835A830E9409
:10046000D8014981842F5A81952F0F900F90DF91E9
:10047000CF910895CF93DF931F92CDB7DEB76983F5
:1004800061E0CE0101960E94D80181E090E00F90DA
:10049000DF91CF910895089580E090E008950E9443
:1004A00003051F920F920FB60F9211242F933F93C3
:1004B0008F939F93AF93BF9380919B0190919C01E9
:1004C000A0919D01B0919E0130919A0123E0230FEC
:1004D0002D3720F40196A11DB11D05C026E8230F7C
:1004E0000296A11DB11D20939A0180939B019093C8
:1004F0009C01A0939D01B0939E01809196019091E3
:100500009701A0919801B09199010196A11DB11D8B
:100510008093960190939701A0939801B0939901CD
:10052000BF91AF919F918F913F912F910F900FBEEF
:100530000F901F9018951F920F920FB60F921124D3
:100540002F933F934F935F936F937F938F939F93DB
:10055000AF93BF93EF93FF938FE991E00E943A012D
:10056000FF91EF91BF91AF919F918F917F916F918B
:100570005F914F913F912F910F900FBE0F901F9061
:1005800018951F920F920FB60F9211242F938F93ED
:100590009F93EF93FF93E091AF01F091B0018081C1
:1005A000E091B501F091B60182FD12C09081809179
:1005B000B8018F5F8F732091B901821751F0E091DC
:1005C000B801F0E0E156FE4F958F8093B80101C06D
:1005D0008081FF91EF919F918F912F910F900FBE8E
:1005E0000F901F9018951F920F920FB60F92112423
:1005F0002F933F934F935F936F937F938F939F932B
:10060000AF93BF93EF93FF938091B900887F8036BB
:1006100009F49CC068F5883209F45BC090F480311D
:1006200009F454C038F4882309F4F6C0883009F47A
:100630004DC0F6C0883109F44CC0803209F45DC069
:10064000EFC0803409F468C048F4803309F455C021
:10065000883309F0E5C080936B01D8C0803509F478
:100660004FC0883509F45DC0883409F0D9C0D6C0C0
:10067000883909F4C7C0A8F4883709F467C038F48A
:10068000883609F463C0803709F460C0C9C088386F
:1006900009F4B8C0803909F45FC0803809F0C0C0DF
:1006A0005BC0803B09F486C038F4803A09F466C028
:1006B000883A09F47FC0B4C0803C09F4A7C0883CE4
:1006C00009F4A4C0883B09F48AC0AAC080918E01B5
:1006D00010C090918D0180918C01981770F5E09178
:1006E0008D0181E08E0F80938D01F0E0E459FE4F83
:1006F00080818093BB0085EC86C080936B018EC0A7
:10070000E0918D0181E08E0F80938D018091BB007F
:10071000F0E0E459FE4F808390918D0180918C012F
:100720006EC0E0918D0181E08E0F80938D018091EC
:10073000BB00F0E0E459FE4F80838091900181116D
:100740006DC081E080938F0184EA61C083E0809373
:10075000910110926A01CFCF80916A01803208F036
:1007600051C0E0916A0181E08E0F80936A0180910F
:10077000BB00F0E0E65BFE4F8083BDCF85EC80934D
:10078000BC001092910180916A01803230F4E091B6
:100790006A01F0E0E65BFE4F108260916A0170E052
:1007A000E0914801F09149018AE491E009951092A5
:1007B0006A0136C084E08093910110924701109243
:1007C0004601E0914401F09145010995809146016F
:1007D000811105C081E08093460110922401E091CF
:1007E000470181E08E0F80934701F0E0EC5DFE4F02
:1007F00080818093BB0090914701809146019817BA
:1008000008F479CF85E88093BC000AC085EC80931A
:10081000BC001092910104C010926B010E94CE01A5
:10082000FF91EF91BF91AF919F918F917F916F91C8
:100830005F914F913F912F910F900FBE0F901F909E
:100840001895EFE9F1E01382128288EE93E0A0E0C0
:10085000B0E084839583A683B78324E031E03183BD
:10086000208325EC30E03587248724EC30E037877F
:10087000268720EC30E0318B208B21EC30E0338B6D
:10088000228B22EC30E0358B248B26EC30E0378B4A
:10089000268B118E128E138E148EECE3F2E01382EF
:1008A000128284839583A683B78386E191E0918346
:1008B00080830895789484B5826084BD84B5816016
:1008C00084BD85B5826085BD85B5816085BD80911B
:1008D0006E00816080936E00109281008091810093
:1008E000826080938100809181008160809381008B
:1008F000809180008160809380008091B10084604D
:100900008093B1008091B00081608093B0008091AD
:100910007A00846080937A0080917A00826080936C
:100920007A0080917A00816080937A0080917A00C9
:10093000806880937A001092C100E091AF01F0913D
:10094000B00182E08083E091AB01F091AC011082B4
:10095000E091AD01F091AE0187E680831092B7017E
:10096000E091B301F091B40186E08083E091B101A0
:10097000F091B201808180618083E091B101F091BA
:10098000B201808188608083E091B101F091B20171
:10099000808180688083E091B101F091B201808113
:1009A0008F7D808310929501109294011092930193
:1009B000109292011092910181E080939001109227
:1009C0008F0182E10E94820083E10E948200809177
:1009D000B9008E7F8093B9008091B9008D7F80939C
:1009E000B90088E48093B80085E48093BC008CE073
:1009F0008093B8000E94C401FDCFEE0FFF1F059049
:100A0000F491E02D099481E090E0F8940C940805AD
:040A1000F894FFCF88
:100A1400000000005B01C800F300A20124010201F0
:100A24001601000000003A0226024C0200021E02D7
:040A34000F020102AA
:00000001FF
